{
  "_format": "hh-sol-artifact-1",
  "contractName": "Staking",
  "sourceName": "contracts/StakingContract.sol",
  "abi": [
    {
      "inputs": [
        {
          "internalType": "contract IERC20",
          "name": "_rewardToken",
          "type": "address"
        }
      ],
      "stateMutability": "nonpayable",
      "type": "constructor"
    },
    {
      "anonymous": false,
      "inputs": [
        {
          "indexed": true,
          "internalType": "address",
          "name": "previousOwner",
          "type": "address"
        },
        {
          "indexed": true,
          "internalType": "address",
          "name": "newOwner",
          "type": "address"
        }
      ],
      "name": "OwnershipTransferred",
      "type": "event"
    },
    {
      "anonymous": false,
      "inputs": [
        {
          "indexed": false,
          "internalType": "uint256",
          "name": "timelock",
          "type": "uint256"
        },
        {
          "indexed": false,
          "internalType": "uint256",
          "name": "blockNumber",
          "type": "uint256"
        }
      ],
      "name": "Stake",
      "type": "event"
    },
    {
      "anonymous": false,
      "inputs": [
        {
          "indexed": false,
          "internalType": "address",
          "name": "_address",
          "type": "address"
        },
        {
          "indexed": false,
          "internalType": "uint256",
          "name": "amount",
          "type": "uint256"
        }
      ],
      "name": "Unstake",
      "type": "event"
    },
    {
      "inputs": [
        {
          "internalType": "contract IERC20",
          "name": "_rewardToken",
          "type": "address"
        }
      ],
      "name": "changeRewardToken",
      "outputs": [],
      "stateMutability": "nonpayable",
      "type": "function"
    },
    {
      "inputs": [
        {
          "internalType": "address",
          "name": "",
          "type": "address"
        }
      ],
      "name": "funds",
      "outputs": [
        {
          "internalType": "uint256",
          "name": "amount",
          "type": "uint256"
        },
        {
          "internalType": "uint256",
          "name": "lockBlock",
          "type": "uint256"
        }
      ],
      "stateMutability": "view",
      "type": "function"
    },
    {
      "inputs": [],
      "name": "owner",
      "outputs": [
        {
          "internalType": "address",
          "name": "",
          "type": "address"
        }
      ],
      "stateMutability": "view",
      "type": "function"
    },
    {
      "inputs": [],
      "name": "renounceOwnership",
      "outputs": [],
      "stateMutability": "nonpayable",
      "type": "function"
    },
    {
      "inputs": [],
      "name": "rewardToken",
      "outputs": [
        {
          "internalType": "contract IERC20",
          "name": "",
          "type": "address"
        }
      ],
      "stateMutability": "view",
      "type": "function"
    },
    {
      "inputs": [
        {
          "internalType": "uint256",
          "name": "timelock",
          "type": "uint256"
        }
      ],
      "name": "stake",
      "outputs": [],
      "stateMutability": "payable",
      "type": "function"
    },
    {
      "inputs": [
        {
          "internalType": "address",
          "name": "newOwner",
          "type": "address"
        }
      ],
      "name": "transferOwnership",
      "outputs": [],
      "stateMutability": "nonpayable",
      "type": "function"
    },
    {
      "inputs": [
        {
          "internalType": "uint256",
          "name": "amount",
          "type": "uint256"
        }
      ],
      "name": "unstake",
      "outputs": [],
      "stateMutability": "nonpayable",
      "type": "function"
    }
  ],
  "bytecode": "0x608060405234801561001057600080fd5b506040516108cd3803806108cd83398101604081905261002f916100ad565b6100383361005d565b600180546001600160a01b0319166001600160a01b03929092169190911790556100dd565b600080546001600160a01b038381166001600160a01b0319831681178455604051919092169283917f8be0079c531659141344cd1fd0a4f28419497f9722a3daafe3b4186f6b6457e09190a35050565b6000602082840312156100bf57600080fd5b81516001600160a01b03811681146100d657600080fd5b9392505050565b6107e1806100ec6000396000f3fe60806040526004361061007b5760003560e01c8063a694fc3a1161004e578063a694fc3a1461010e578063e2ae93fb14610121578063f2fde38b1461016a578063f7c618c11461018a57600080fd5b8063088ab8ce146100805780632e17de78146100a2578063715018a6146100c25780638da5cb5b146100d7575b600080fd5b34801561008c57600080fd5b506100a061009b366004610707565b6101aa565b005b3480156100ae57600080fd5b506100a06100bd36600461072b565b6101d4565b3480156100ce57600080fd5b506100a0610494565b3480156100e357600080fd5b506000546001600160a01b03165b6040516001600160a01b0390911681526020015b60405180910390f35b6100a061011c36600461072b565b6104a8565b34801561012d57600080fd5b5061015561013c366004610707565b6002602052600090815260409020805460019091015482565b60408051928352602083019190915201610105565b34801561017657600080fd5b506100a0610185366004610707565b6105cf565b34801561019657600080fd5b506001546100f1906001600160a01b031681565b6101b2610648565b600180546001600160a01b0319166001600160a01b0392909216919091179055565b336000908152600260205260409020600101544310156102615760405162461bcd60e51b815260206004820152603f60248201527f43757272656e7420626c6f636b20686569676874206d7573742062652067726560448201527f61746572206f7220657175616c20746f20746865206c6f636b20626c6f636b0060648201526084015b60405180910390fd5b336000908152600260205260409020546102d75760405162461bcd60e51b815260206004820152603160248201527f4c6f636b20616d6f756e74206d7573742062652067726561746572207468616e6044820152700406040e8de40eadce6e8c2d6ca40cae8d607b1b6064820152608401610258565b3360009081526002602052604090205481111561035c5760405162461bcd60e51b815260206004820152603c60248201527f756e7374616b6520616d6f756e742073686f756c64206265206c657373206f7260448201527f20657175616c20746f20796f7572207374616b656420616d6f756e74000000006064820152608401610258565b336000908152600260205260408120805483929061037b90849061075a565b90915550506001546000906001600160a01b03166323b872dd6103a66000546001600160a01b031690565b6040516001600160e01b031960e084901b1681526001600160a01b039091166004820152336024820152604481018590526064016020604051808303816000875af11580156103f9573d6000803e3d6000fd5b505050506040513d601f19601f8201168201806040525081019061041d9190610771565b90508061042957600080fd5b604051339083156108fc029084906000818181858888f19350505050158015610456573d6000803e3d6000fd5b5060408051338152602081018490527f85082129d87b2fe11527cb1b3b7a520aeb5aa6913f88a3d8757fe40d1db02fdd910160405180910390a15050565b61049c610648565b6104a660006106a2565b565b6000341161050c5760405162461bcd60e51b815260206004820152602b60248201527f45746820616d6f756e74206465706f7369746564206d7573742062652067726560448201526a061746572207468616e20360ac1b6064820152608401610258565b336000908152600260205260408120805434929061052b908490610793565b90915550503360009081526002602052604090206001015443111561056c576105548143610793565b33600090815260026020526040902060010155610594565b336000908152600260205260408120600101805483929061058e908490610793565b90915550505b604080518281524360208201527fc9ec05ea5037818736839e1365dc3d9a74a735c447af0697da66633b7a9d0fab910160405180910390a150565b6105d7610648565b6001600160a01b03811661063c5760405162461bcd60e51b815260206004820152602660248201527f4f776e61626c653a206e6577206f776e657220697320746865207a65726f206160448201526564647265737360d01b6064820152608401610258565b610645816106a2565b50565b6000546001600160a01b031633146104a65760405162461bcd60e51b815260206004820181905260248201527f4f776e61626c653a2063616c6c6572206973206e6f7420746865206f776e65726044820152606401610258565b600080546001600160a01b038381166001600160a01b0319831681178455604051919092169283917f8be0079c531659141344cd1fd0a4f28419497f9722a3daafe3b4186f6b6457e09190a35050565b6001600160a01b038116811461064557600080fd5b60006020828403121561071957600080fd5b8135610724816106f2565b9392505050565b60006020828403121561073d57600080fd5b5035919050565b634e487b7160e01b600052601160045260246000fd5b60008282101561076c5761076c610744565b500390565b60006020828403121561078357600080fd5b8151801515811461072457600080fd5b600082198211156107a6576107a6610744565b50019056fea264697066735822122032fbe4290305fb75e89794019e55f47e6ef71546caa440615b86450e6e2cacfc64736f6c634300080a0033",
  "linkReferences": {},
  "deployedLinkReferences": {}
}